{
  "contractName": "ApiToken",
  "abi": [
    {
      "inputs": [
        {
          "internalType": "address[]",
          "name": "payees",
          "type": "address[]"
        },
        {
          "internalType": "uint256[]",
          "name": "shares_",
          "type": "uint256[]"
        }
      ],
      "stateMutability": "nonpayable",
      "type": "constructor"
    },
    {
      "anonymous": false,
      "inputs": [
        {
          "indexed": true,
          "internalType": "address",
          "name": "owner",
          "type": "address"
        },
        {
          "indexed": true,
          "internalType": "address",
          "name": "spender",
          "type": "address"
        },
        {
          "indexed": false,
          "internalType": "uint256",
          "name": "value",
          "type": "uint256"
        }
      ],
      "name": "Approval",
      "type": "event"
    },
    {
      "anonymous": false,
      "inputs": [
        {
          "indexed": false,
          "internalType": "address",
          "name": "account",
          "type": "address"
        },
        {
          "indexed": false,
          "internalType": "uint256",
          "name": "shares",
          "type": "uint256"
        }
      ],
      "name": "PayeeAdded",
      "type": "event"
    },
    {
      "anonymous": false,
      "inputs": [
        {
          "indexed": false,
          "internalType": "address",
          "name": "from",
          "type": "address"
        },
        {
          "indexed": false,
          "internalType": "uint256",
          "name": "amount",
          "type": "uint256"
        }
      ],
      "name": "PaymentReceived",
      "type": "event"
    },
    {
      "anonymous": false,
      "inputs": [
        {
          "indexed": false,
          "internalType": "address",
          "name": "to",
          "type": "address"
        },
        {
          "indexed": false,
          "internalType": "uint256",
          "name": "amount",
          "type": "uint256"
        }
      ],
      "name": "PaymentReleased",
      "type": "event"
    },
    {
      "anonymous": false,
      "inputs": [
        {
          "indexed": true,
          "internalType": "address",
          "name": "from",
          "type": "address"
        },
        {
          "indexed": true,
          "internalType": "address",
          "name": "to",
          "type": "address"
        },
        {
          "indexed": false,
          "internalType": "uint256",
          "name": "value",
          "type": "uint256"
        }
      ],
      "name": "Transfer",
      "type": "event"
    },
    {
      "inputs": [
        {
          "internalType": "address",
          "name": "owner",
          "type": "address"
        },
        {
          "internalType": "address",
          "name": "spender",
          "type": "address"
        }
      ],
      "name": "allowance",
      "outputs": [
        {
          "internalType": "uint256",
          "name": "",
          "type": "uint256"
        }
      ],
      "stateMutability": "view",
      "type": "function",
      "constant": true
    },
    {
      "inputs": [
        {
          "internalType": "address",
          "name": "spender",
          "type": "address"
        },
        {
          "internalType": "uint256",
          "name": "amount",
          "type": "uint256"
        }
      ],
      "name": "approve",
      "outputs": [
        {
          "internalType": "bool",
          "name": "",
          "type": "bool"
        }
      ],
      "stateMutability": "nonpayable",
      "type": "function"
    },
    {
      "inputs": [
        {
          "internalType": "address",
          "name": "account",
          "type": "address"
        }
      ],
      "name": "balanceOf",
      "outputs": [
        {
          "internalType": "uint256",
          "name": "",
          "type": "uint256"
        }
      ],
      "stateMutability": "view",
      "type": "function",
      "constant": true
    },
    {
      "inputs": [],
      "name": "decimals",
      "outputs": [
        {
          "internalType": "uint8",
          "name": "",
          "type": "uint8"
        }
      ],
      "stateMutability": "view",
      "type": "function",
      "constant": true
    },
    {
      "inputs": [
        {
          "internalType": "address",
          "name": "spender",
          "type": "address"
        },
        {
          "internalType": "uint256",
          "name": "subtractedValue",
          "type": "uint256"
        }
      ],
      "name": "decreaseAllowance",
      "outputs": [
        {
          "internalType": "bool",
          "name": "",
          "type": "bool"
        }
      ],
      "stateMutability": "nonpayable",
      "type": "function"
    },
    {
      "inputs": [
        {
          "internalType": "address",
          "name": "spender",
          "type": "address"
        },
        {
          "internalType": "uint256",
          "name": "addedValue",
          "type": "uint256"
        }
      ],
      "name": "increaseAllowance",
      "outputs": [
        {
          "internalType": "bool",
          "name": "",
          "type": "bool"
        }
      ],
      "stateMutability": "nonpayable",
      "type": "function"
    },
    {
      "inputs": [],
      "name": "name",
      "outputs": [
        {
          "internalType": "string",
          "name": "",
          "type": "string"
        }
      ],
      "stateMutability": "view",
      "type": "function",
      "constant": true
    },
    {
      "inputs": [],
      "name": "symbol",
      "outputs": [
        {
          "internalType": "string",
          "name": "",
          "type": "string"
        }
      ],
      "stateMutability": "view",
      "type": "function",
      "constant": true
    },
    {
      "inputs": [],
      "name": "totalSupply",
      "outputs": [
        {
          "internalType": "uint256",
          "name": "",
          "type": "uint256"
        }
      ],
      "stateMutability": "view",
      "type": "function",
      "constant": true
    },
    {
      "stateMutability": "payable",
      "type": "receive",
      "payable": true
    },
    {
      "inputs": [],
      "name": "contractRevenue",
      "outputs": [
        {
          "internalType": "uint256",
          "name": "",
          "type": "uint256"
        }
      ],
      "stateMutability": "view",
      "type": "function",
      "constant": true
    },
    {
      "inputs": [],
      "name": "getBackALLDAI",
      "outputs": [],
      "stateMutability": "nonpayable",
      "type": "function"
    },
    {
      "inputs": [],
      "name": "totalPayees",
      "outputs": [
        {
          "internalType": "uint256",
          "name": "",
          "type": "uint256"
        }
      ],
      "stateMutability": "view",
      "type": "function",
      "constant": true
    },
    {
      "inputs": [],
      "name": "totalShares",
      "outputs": [
        {
          "internalType": "uint256",
          "name": "",
          "type": "uint256"
        }
      ],
      "stateMutability": "view",
      "type": "function",
      "constant": true
    },
    {
      "inputs": [],
      "name": "totalReleased",
      "outputs": [
        {
          "internalType": "uint256",
          "name": "",
          "type": "uint256"
        }
      ],
      "stateMutability": "view",
      "type": "function",
      "constant": true
    },
    {
      "inputs": [
        {
          "internalType": "address",
          "name": "account",
          "type": "address"
        }
      ],
      "name": "shares",
      "outputs": [
        {
          "internalType": "uint256",
          "name": "",
          "type": "uint256"
        }
      ],
      "stateMutability": "view",
      "type": "function",
      "constant": true
    },
    {
      "inputs": [
        {
          "internalType": "address",
          "name": "account",
          "type": "address"
        }
      ],
      "name": "released",
      "outputs": [
        {
          "internalType": "uint256",
          "name": "",
          "type": "uint256"
        }
      ],
      "stateMutability": "view",
      "type": "function",
      "constant": true
    },
    {
      "inputs": [
        {
          "internalType": "uint256",
          "name": "index",
          "type": "uint256"
        }
      ],
      "name": "payee",
      "outputs": [
        {
          "internalType": "address",
          "name": "",
          "type": "address"
        }
      ],
      "stateMutability": "view",
      "type": "function",
      "constant": true
    },
    {
      "inputs": [
        {
          "internalType": "address",
          "name": "account",
          "type": "address"
        }
      ],
      "name": "release",
      "outputs": [],
      "stateMutability": "nonpayable",
      "type": "function"
    },
    {
      "inputs": [
        {
          "internalType": "address",
          "name": "account",
          "type": "address"
        },
        {
          "internalType": "uint256",
          "name": "shares_",
          "type": "uint256"
        }
      ],
      "name": "_addPayee",
      "outputs": [],
      "stateMutability": "nonpayable",
      "type": "function"
    },
    {
      "inputs": [
        {
          "internalType": "uint256",
          "name": "amount",
          "type": "uint256"
        }
      ],
      "name": "subscribe",
      "outputs": [],
      "stateMutability": "nonpayable",
      "type": "function"
    },
    {
      "inputs": [
        {
          "internalType": "address",
          "name": "recipient",
          "type": "address"
        },
        {
          "internalType": "uint256",
          "name": "amount",
          "type": "uint256"
        }
      ],
      "name": "transfer",
      "outputs": [
        {
          "internalType": "bool",
          "name": "",
          "type": "bool"
        }
      ],
      "stateMutability": "nonpayable",
      "type": "function"
    },
    {
      "inputs": [
        {
          "internalType": "address",
          "name": "sender",
          "type": "address"
        },
        {
          "internalType": "address",
          "name": "recipient",
          "type": "address"
        },
        {
          "internalType": "uint256",
          "name": "amount",
          "type": "uint256"
        }
      ],
      "name": "transferFrom",
      "outputs": [
        {
          "internalType": "bool",
          "name": "",
          "type": "bool"
        }
      ],
      "stateMutability": "nonpayable",
      "type": "function"
    },
    {
      "inputs": [
        {
          "internalType": "address",
          "name": "sender",
          "type": "address"
        },
        {
          "internalType": "address",
          "name": "recipient",
          "type": "address"
        },
        {
          "internalType": "uint256",
          "name": "amount",
          "type": "uint256"
        }
      ],
      "name": "_transferFrom",
      "outputs": [
        {
          "internalType": "bool",
          "name": "",
          "type": "bool"
        }
      ],
      "stateMutability": "nonpayable",
      "type": "function"
    }
  ],
  "bytecode": "0x60806040526101f46008556b033b2e3c9fd0803ce800000060095573ad6d458402f60fd3bd25163575031acdce07538d601360006101000a81548173ffffffffffffffffffffffffffffffffffffffff021916908373ffffffffffffffffffffffffffffffffffffffff160217905550601360009054906101000a900473ffffffffffffffffffffffffffffffffffffffff16601460006101000a81548173ffffffffffffffffffffffffffffffffffffffff021916908373ffffffffffffffffffffffffffffffffffffffff160217905550348015620000df57600080fd5b50604051620050ea380380620050ea833981810160405281019062000105919062000a09565b6040518060400160405280600881526020017f415049546f6b656e0000000000000000000000000000000000000000000000008152506040518060400160405280600381526020017f4150540000000000000000000000000000000000000000000000000000000000815250816003908051906020019062000189929190620007e7565b508060049080519060200190620001a2929190620007e7565b5050508051825114620001ec576040517f08c379a0000000000000000000000000000000000000000000000000000000008152600401620001e39062000d2f565b60405180910390fd5b600082511162000233576040517f08c379a00000000000000000000000000000000000000000000000000000000081526004016200022a9062000d51565b60405180910390fd5b60005b8251811015620003d257620002fe8382815181106200027e577f4e487b7100000000000000000000000000000000000000000000000000000000600052603260045260246000fd5b602002602001015162000296620003db60201b60201c565b600a620002a4919062000f0d565b848481518110620002de577f4e487b7100000000000000000000000000000000000000000000000000000000600052603260045260246000fd5b6020026020010151620002f291906200104a565b620003e460201b60201c565b620003bc8382815181106200033c577f4e487b7100000000000000000000000000000000000000000000000000000000600052603260045260246000fd5b602002602001015162000354620003db60201b60201c565b600a62000362919062000f0d565b8484815181106200039c577f4e487b7100000000000000000000000000000000000000000000000000000000600052603260045260246000fd5b6020026020010151620003b091906200104a565b6200066460201b60201c565b8080620003c9906200112c565b91505062000236565b50505062001248565b60006012905090565b600073ffffffffffffffffffffffffffffffffffffffff168273ffffffffffffffffffffffffffffffffffffffff16141562000457576040517f08c379a00000000000000000000000000000000000000000000000000000000081526004016200044e9062000ceb565b60405180910390fd5b600081116200049d576040517f08c379a0000000000000000000000000000000000000000000000000000000008152600401620004949062000cc9565b60405180910390fd5b6000600c60008473ffffffffffffffffffffffffffffffffffffffff1673ffffffffffffffffffffffffffffffffffffffff168152602001908152602001600020541462000522576040517f08c379a0000000000000000000000000000000000000000000000000000000008152600401620005199062000d0d565b60405180910390fd5b600754600a60008473ffffffffffffffffffffffffffffffffffffffff1673ffffffffffffffffffffffffffffffffffffffff168152602001908152602001600020819055506010829080600181540180825580915050600190039060005260206000200160009091909190916101000a81548173ffffffffffffffffffffffffffffffffffffffff021916908373ffffffffffffffffffffffffffffffffffffffff16021790555080600c60008473ffffffffffffffffffffffffffffffffffffffff1673ffffffffffffffffffffffffffffffffffffffff16815260200190815260200160002081905550806005546200061f919062000e55565b6005819055507f40c340f65e17194d14ddddb073d3c9f888e3cb52b5aae0c6c7706b4fbc905fac82826040516200065892919062000c9c565b60405180910390a15050565b600073ffffffffffffffffffffffffffffffffffffffff168273ffffffffffffffffffffffffffffffffffffffff161415620006d7576040517f08c379a0000000000000000000000000000000000000000000000000000000008152600401620006ce9062000d73565b60405180910390fd5b620006eb60008383620007dd60201b60201c565b8060026000828254620006ff919062000e55565b92505081905550806000808473ffffffffffffffffffffffffffffffffffffffff1673ffffffffffffffffffffffffffffffffffffffff168152602001908152602001600020600082825462000756919062000e55565b925050819055508173ffffffffffffffffffffffffffffffffffffffff16600073ffffffffffffffffffffffffffffffffffffffff167fddf252ad1be2c89b69c2b068fc378daa952ba7f163c4a11628f55a4df523b3ef83604051620007bd919062000d95565b60405180910390a3620007d960008383620007e260201b60201c565b5050565b505050565b505050565b828054620007f590620010f6565b90600052602060002090601f01602090048101928262000819576000855562000865565b82601f106200083457805160ff191683800117855562000865565b8280016001018555821562000865579182015b828111156200086457825182559160200191906001019062000847565b5b50905062000874919062000878565b5090565b5b808211156200089357600081600090555060010162000879565b5090565b6000620008ae620008a88462000de6565b62000db2565b90508083825260208201905082856020860282011115620008ce57600080fd5b60005b85811015620009025781620008e7888262000981565b845260208401935060208301925050600181019050620008d1565b5050509392505050565b6000620009236200091d8462000e15565b62000db2565b905080838252602082019050828560208602820111156200094357600080fd5b60005b858110156200097757816200095c8882620009f2565b84526020840193506020830192505060018101905062000946565b5050509392505050565b600081519050620009928162001214565b92915050565b600082601f830112620009aa57600080fd5b8151620009bc84826020860162000897565b91505092915050565b600082601f830112620009d757600080fd5b8151620009e98482602086016200090c565b91505092915050565b60008151905062000a03816200122e565b92915050565b6000806040838503121562000a1d57600080fd5b600083015167ffffffffffffffff81111562000a3857600080fd5b62000a468582860162000998565b925050602083015167ffffffffffffffff81111562000a6457600080fd5b62000a7285828601620009c5565b9150509250929050565b62000a8781620010ab565b82525050565b600062000a9c60148362000e44565b91507f4552433230203a207368617265732061726520300000000000000000000000006000830152602082019050919050565b600062000ade60238362000e44565b91507f4552433230203a206163636f756e7420697320746865207a65726f206164647260008301527f65737300000000000000000000000000000000000000000000000000000000006020830152604082019050919050565b600062000b4660228362000e44565b91507f4552433230203a206163636f756e7420616c726561647920686173207368617260008301527f65730000000000000000000000000000000000000000000000000000000000006020830152604082019050919050565b600062000bae60228362000e44565b91507f2070617965657320616e6420736861726573206c656e677468206d69736d617460008301527f63680000000000000000000000000000000000000000000000000000000000006020830152604082019050919050565b600062000c16600a8362000e44565b91507f206e6f20706179656573000000000000000000000000000000000000000000006000830152602082019050919050565b600062000c58601f8362000e44565b91507f45524332303a206d696e7420746f20746865207a65726f2061646472657373006000830152602082019050919050565b62000c9681620010df565b82525050565b600060408201905062000cb3600083018562000a7c565b62000cc2602083018462000c8b565b9392505050565b6000602082019050818103600083015262000ce48162000a8d565b9050919050565b6000602082019050818103600083015262000d068162000acf565b9050919050565b6000602082019050818103600083015262000d288162000b37565b9050919050565b6000602082019050818103600083015262000d4a8162000b9f565b9050919050565b6000602082019050818103600083015262000d6c8162000c07565b9050919050565b6000602082019050818103600083015262000d8e8162000c49565b9050919050565b600060208201905062000dac600083018462000c8b565b92915050565b6000604051905081810181811067ffffffffffffffff8211171562000ddc5762000ddb620011d8565b5b8060405250919050565b600067ffffffffffffffff82111562000e045762000e03620011d8565b5b602082029050602081019050919050565b600067ffffffffffffffff82111562000e335762000e32620011d8565b5b602082029050602081019050919050565b600082825260208201905092915050565b600062000e6282620010df565b915062000e6f83620010df565b9250827fffffffffffffffffffffffffffffffffffffffffffffffffffffffffffffffff0382111562000ea75762000ea66200117a565b5b828201905092915050565b6000808291508390505b600185111562000f045780860481111562000edc5762000edb6200117a565b5b600185161562000eec5780820291505b808102905062000efc8562001207565b945062000ebc565b94509492505050565b600062000f1a82620010df565b915062000f2783620010e9565b925062000f567fffffffffffffffffffffffffffffffffffffffffffffffffffffffffffffffff848462000f5e565b905092915050565b60008262000f70576001905062001043565b8162000f80576000905062001043565b816001811462000f99576002811462000fa45762000fda565b600191505062001043565b60ff84111562000fb95762000fb86200117a565b5b8360020a91508482111562000fd35762000fd26200117a565b5b5062001043565b5060208310610133831016604e8410600b8410161715620010145782820a9050838111156200100e576200100d6200117a565b5b62001043565b62001023848484600162000eb2565b925090508184048111156200103d576200103c6200117a565b5b81810290505b9392505050565b60006200105782620010df565b91506200106483620010df565b9250817fffffffffffffffffffffffffffffffffffffffffffffffffffffffffffffffff0483118215151615620010a0576200109f6200117a565b5b828202905092915050565b6000620010b882620010bf565b9050919050565b600073ffffffffffffffffffffffffffffffffffffffff82169050919050565b6000819050919050565b600060ff82169050919050565b600060028204905060018216806200110f57607f821691505b60208210811415620011265762001125620011a9565b5b50919050565b60006200113982620010df565b91507fffffffffffffffffffffffffffffffffffffffffffffffffffffffffffffffff8214156200116f576200116e6200117a565b5b600182019050919050565b7f4e487b7100000000000000000000000000000000000000000000000000000000600052601160045260246000fd5b7f4e487b7100000000000000000000000000000000000000000000000000000000600052602260045260246000fd5b7f4e487b7100000000000000000000000000000000000000000000000000000000600052604160045260246000fd5b60008160011c9050919050565b6200121f81620010ab565b81146200122b57600080fd5b50565b6200123981620010df565b81146200124557600080fd5b50565b613e9280620012586000396000f3fe6080604052600436106101445760003560e01c806370a08231116100b6578063a9059cbb1161006f578063a9059cbb146104cf578063cb7125351461050c578063ce7c2ac214610549578063dd62ed3e14610586578063de5ea742146105c3578063e33b7de3146105ee5761018b565b806370a082311461038557806371b5bba6146103c25780638b83209b146103ed57806395d89b411461042a5780639852595c14610455578063a457c2d7146104925761018b565b806323b872dd1161010857806323b872dd146102755780632fc70ea8146102b2578063313ce567146102c957806339509351146102f45780633a98ef39146103315780636ae6921f1461035c5761018b565b806306fdde0314610190578063095ea7b3146101bb5780630f574ba7146101f857806318160ddd14610221578063191655871461024c5761018b565b3661018b577f6ef95f06320e7a25a04a175ca677b7052bdd97131872c2192525a629f51be770610172610619565b34604051610181929190613743565b60405180910390a1005b600080fd5b34801561019c57600080fd5b506101a5610621565b6040516101b29190613787565b60405180910390f35b3480156101c757600080fd5b506101e260048036038101906101dd9190612ffa565b6106b3565b6040516101ef919061376c565b60405180910390f35b34801561020457600080fd5b5061021f600480360381019061021a919061305f565b6106d1565b005b34801561022d57600080fd5b50610236610d0c565b60405161024391906139a9565b60405180910390f35b34801561025857600080fd5b50610273600480360381019061026e9190612f46565b610d16565b005b34801561028157600080fd5b5061029c60048036038101906102979190612fab565b611186565b6040516102a9919061376c565b60405180910390f35b3480156102be57600080fd5b506102c76116e2565b005b3480156102d557600080fd5b506102de6117a2565b6040516102eb91906139c4565b60405180910390f35b34801561030057600080fd5b5061031b60048036038101906103169190612ffa565b6117ab565b604051610328919061376c565b60405180910390f35b34801561033d57600080fd5b50610346611857565b60405161035391906139a9565b60405180910390f35b34801561036857600080fd5b50610383600480360381019061037e9190612ffa565b611861565b005b34801561039157600080fd5b506103ac60048036038101906103a79190612f46565b611ad4565b6040516103b991906139a9565b60405180910390f35b3480156103ce57600080fd5b506103d7611b1c565b6040516103e491906139a9565b60405180910390f35b3480156103f957600080fd5b50610414600480360381019061040f919061305f565b611b29565b60405161042191906136c8565b60405180910390f35b34801561043657600080fd5b5061043f611b97565b60405161044c9190613787565b60405180910390f35b34801561046157600080fd5b5061047c60048036038101906104779190612f46565b611c29565b60405161048991906139a9565b60405180910390f35b34801561049e57600080fd5b506104b960048036038101906104b49190612ffa565b611c72565b6040516104c6919061376c565b60405180910390f35b3480156104db57600080fd5b506104f660048036038101906104f19190612ffa565b611d5d565b604051610503919061376c565b60405180910390f35b34801561051857600080fd5b50610533600480360381019061052e9190612fab565b61232f565b604051610540919061376c565b60405180910390f35b34801561055557600080fd5b50610570600480360381019061056b9190612f46565b6123b4565b60405161057d91906139a9565b60405180910390f35b34801561059257600080fd5b506105ad60048036038101906105a89190612f6f565b6123fd565b6040516105ba91906139a9565b60405180910390f35b3480156105cf57600080fd5b506105d8612484565b6040516105e591906139a9565b60405180910390f35b3480156105fa57600080fd5b50610603612536565b60405161061091906139a9565b60405180910390f35b600033905090565b60606003805461063090613d09565b80601f016020809104026020016040519081016040528092919081815260200182805461065c90613d09565b80156106a95780601f1061067e576101008083540402835291602001916106a9565b820191906000526020600020905b81548152906001019060200180831161068c57829003601f168201915b5050505050905090565b60006106c76106c0610619565b8484612540565b6001905092915050565b6000601460009054906101000a900473ffffffffffffffffffffffffffffffffffffffff1673ffffffffffffffffffffffffffffffffffffffff1663dd62ed3e610719610619565b306040518363ffffffff1660e01b81526004016107379291906136e3565b60206040518083038186803b15801561074f57600080fd5b505afa158015610763573d6000803e3d6000fd5b505050506040513d601f19601f820116820180604052508101906107879190613088565b116107c7576040517f08c379a00000000000000000000000000000000000000000000000000000000081526004016107be90613889565b60405180910390fd5b80600b60006107d4610619565b73ffffffffffffffffffffffffffffffffffffffff1673ffffffffffffffffffffffffffffffffffffffff1681526020019081526020016000205461081991906139fb565b600b6000610825610619565b73ffffffffffffffffffffffffffffffffffffffff1673ffffffffffffffffffffffffffffffffffffffff168152602001908152602001600020819055508060075461087191906139fb565b6007819055506000600854600b6000610888610619565b73ffffffffffffffffffffffffffffffffffffffff1673ffffffffffffffffffffffffffffffffffffffff168152602001908152602001600020546108cd9190613d3b565b14801561092057506000600c60006108e3610619565b73ffffffffffffffffffffffffffffffffffffffff1673ffffffffffffffffffffffffffffffffffffffff16815260200190815260200160002054145b156109db576109a6610930610619565b600c600061093c610619565b73ffffffffffffffffffffffffffffffffffffffff1673ffffffffffffffffffffffffffffffffffffffff1681526020019081526020016000205461097f6117a2565b600a61098b9190613ad5565b60016109979190613bf3565b6109a191906139fb565b611861565b6109d66109b1610619565b6109b96117a2565b600a6109c59190613ad5565b60016109d19190613bf3565b61270b565b610c50565b6000600854600b60006109ec610619565b73ffffffffffffffffffffffffffffffffffffffff1673ffffffffffffffffffffffffffffffffffffffff16815260200190815260200160002054610a319190613d3b565b148015610a8457506000600c6000610a47610619565b73ffffffffffffffffffffffffffffffffffffffff1673ffffffffffffffffffffffffffffffffffffffff16815260200190815260200160002054115b15610c4f57610a99610a94610619565b61286b565b600e6000610aa5610619565b73ffffffffffffffffffffffffffffffffffffffff1673ffffffffffffffffffffffffffffffffffffffff16815260200190815260200160002081905550600754600a6000610af2610619565b73ffffffffffffffffffffffffffffffffffffffff1673ffffffffffffffffffffffffffffffffffffffff16815260200190815260200160002081905550610b386117a2565b600a610b449190613ad5565b6001610b509190613bf3565b600c6000610b5c610619565b73ffffffffffffffffffffffffffffffffffffffff1673ffffffffffffffffffffffffffffffffffffffff16815260200190815260200160002054610ba191906139fb565b600c6000610bad610619565b73ffffffffffffffffffffffffffffffffffffffff1673ffffffffffffffffffffffffffffffffffffffff16815260200190815260200160002081905550610c1b610bf6610619565b610bfe6117a2565b600a610c0a9190613ad5565b6001610c169190613bf3565b61270b565b610c236117a2565b600a610c2f9190613ad5565b6001610c3b9190613bf3565b600554610c4891906139fb565b6005819055505b5b601460009054906101000a900473ffffffffffffffffffffffffffffffffffffffff1673ffffffffffffffffffffffffffffffffffffffff166323b872dd610c96610619565b30846040518463ffffffff1660e01b8152600401610cb69392919061370c565b602060405180830381600087803b158015610cd057600080fd5b505af1158015610ce4573d6000803e3d6000fd5b505050506040513d601f19601f82011682018060405250810190610d089190613036565b5050565b6000600254905090565b6000600c60008373ffffffffffffffffffffffffffffffffffffffff1673ffffffffffffffffffffffffffffffffffffffff168152602001908152602001600020541180610da357506000600e60008373ffffffffffffffffffffffffffffffffffffffff1673ffffffffffffffffffffffffffffffffffffffff16815260200190815260200160002054115b610de2576040517f08c379a0000000000000000000000000000000000000000000000000000000008152600401610dd990613869565b60405180910390fd5b6000601460009054906101000a900473ffffffffffffffffffffffffffffffffffffffff1673ffffffffffffffffffffffffffffffffffffffff166370a08231306040518263ffffffff1660e01b8152600401610e3f91906136c8565b60206040518083038186803b158015610e5757600080fd5b505afa158015610e6b573d6000803e3d6000fd5b505050506040513d601f19601f82011682018060405250810190610e8f9190613088565b11610ecf576040517f08c379a0000000000000000000000000000000000000000000000000000000008152600401610ec690613809565b60405180910390fd5b6000600a60008373ffffffffffffffffffffffffffffffffffffffff1673ffffffffffffffffffffffffffffffffffffffff16815260200190815260200160002054600754610f1e9190613c4d565b90506000600d60008473ffffffffffffffffffffffffffffffffffffffff1673ffffffffffffffffffffffffffffffffffffffff16815260200190815260200160002054600554600c60008673ffffffffffffffffffffffffffffffffffffffff1673ffffffffffffffffffffffffffffffffffffffff1681526020019081526020016000205484610fb09190613bf3565b610fba9190613a51565b610fc49190613c4d565b9050600e60008473ffffffffffffffffffffffffffffffffffffffff1673ffffffffffffffffffffffffffffffffffffffff168152602001908152602001600020548161101191906139fb565b90506000811415611057576040517f08c379a000000000000000000000000000000000000000000000000000000000815260040161104e906138c9565b60405180910390fd5b80600d60008573ffffffffffffffffffffffffffffffffffffffff1673ffffffffffffffffffffffffffffffffffffffff168152602001908152602001600020546110a291906139fb565b600d60008573ffffffffffffffffffffffffffffffffffffffff1673ffffffffffffffffffffffffffffffffffffffff16815260200190815260200160002081905550806006546110f391906139fb565b6006819055506000600e60008573ffffffffffffffffffffffffffffffffffffffff1673ffffffffffffffffffffffffffffffffffffffff168152602001908152602001600020819055506111488382612ab3565b7fdf20fd1e76bc69d672e4814fafb2c449bba3a5369d8359adf9e05e6fde87b0568382604051611179929190613743565b60405180910390a1505050565b600061119183612c54565b80156111a357506111a184612c54565b155b156112f0576111b18461286b565b600e60008673ffffffffffffffffffffffffffffffffffffffff1673ffffffffffffffffffffffffffffffffffffffff16815260200190815260200160002081905550600754600a60008673ffffffffffffffffffffffffffffffffffffffff1673ffffffffffffffffffffffffffffffffffffffff1681526020019081526020016000208190555081600c60008673ffffffffffffffffffffffffffffffffffffffff1673ffffffffffffffffffffffffffffffffffffffff168152602001908152602001600020546112859190613c4d565b600c60008673ffffffffffffffffffffffffffffffffffffffff1673ffffffffffffffffffffffffffffffffffffffff16815260200190815260200160002081905550816005546112d69190613c4d565b6005819055506112e7848484612c67565b600190506116db565b6112f984612c54565b801561130b575061130983612c54565b155b15611458576113198361286b565b600e60008573ffffffffffffffffffffffffffffffffffffffff1673ffffffffffffffffffffffffffffffffffffffff16815260200190815260200160002081905550600754600a60008573ffffffffffffffffffffffffffffffffffffffff1673ffffffffffffffffffffffffffffffffffffffff1681526020019081526020016000208190555081600c60008573ffffffffffffffffffffffffffffffffffffffff1673ffffffffffffffffffffffffffffffffffffffff168152602001908152602001600020546113ed91906139fb565b600c60008573ffffffffffffffffffffffffffffffffffffffff1673ffffffffffffffffffffffffffffffffffffffff168152602001908152602001600020819055508160055461143e91906139fb565b60058190555061144f848484612c67565b600190506116db565b61146184612c54565b8015611472575061147183612c54565b5b1561148b57611482848484612c67565b600190506116db565b6114948461286b565b600e60008673ffffffffffffffffffffffffffffffffffffffff1673ffffffffffffffffffffffffffffffffffffffff16815260200190815260200160002081905550600754600a60008673ffffffffffffffffffffffffffffffffffffffff1673ffffffffffffffffffffffffffffffffffffffff1681526020019081526020016000208190555081600c60008673ffffffffffffffffffffffffffffffffffffffff1673ffffffffffffffffffffffffffffffffffffffff168152602001908152602001600020546115689190613c4d565b600c60008673ffffffffffffffffffffffffffffffffffffffff1673ffffffffffffffffffffffffffffffffffffffff168152602001908152602001600020819055506115b48361286b565b600e60008573ffffffffffffffffffffffffffffffffffffffff1673ffffffffffffffffffffffffffffffffffffffff16815260200190815260200160002081905550600754600a60008573ffffffffffffffffffffffffffffffffffffffff1673ffffffffffffffffffffffffffffffffffffffff1681526020019081526020016000208190555081600c60008573ffffffffffffffffffffffffffffffffffffffff1673ffffffffffffffffffffffffffffffffffffffff1681526020019081526020016000205461168891906139fb565b600c60008573ffffffffffffffffffffffffffffffffffffffff1673ffffffffffffffffffffffffffffffffffffffff168152602001908152602001600020819055506116d6848484612c67565b600190505b9392505050565b601460009054906101000a900473ffffffffffffffffffffffffffffffffffffffff1673ffffffffffffffffffffffffffffffffffffffff1663a9059cbb611728610619565b611730612484565b6040518363ffffffff1660e01b815260040161174d929190613743565b602060405180830381600087803b15801561176757600080fd5b505af115801561177b573d6000803e3d6000fd5b505050506040513d601f19601f8201168201806040525081019061179f9190613036565b50565b60006012905090565b600061184d6117b8610619565b8484600160006117c6610619565b73ffffffffffffffffffffffffffffffffffffffff1673ffffffffffffffffffffffffffffffffffffffff16815260200190815260200160002060008873ffffffffffffffffffffffffffffffffffffffff1673ffffffffffffffffffffffffffffffffffffffff1681526020019081526020016000205461184891906139fb565b612540565b6001905092915050565b6000600554905090565b600073ffffffffffffffffffffffffffffffffffffffff168273ffffffffffffffffffffffffffffffffffffffff1614156118d1576040517f08c379a00000000000000000000000000000000000000000000000000000000081526004016118c890613829565b60405180910390fd5b60008111611914576040517f08c379a000000000000000000000000000000000000000000000000000000000815260040161190b906137e9565b60405180910390fd5b6000600c60008473ffffffffffffffffffffffffffffffffffffffff1673ffffffffffffffffffffffffffffffffffffffff1681526020019081526020016000205414611996576040517f08c379a000000000000000000000000000000000000000000000000000000000815260040161198d906138e9565b60405180910390fd5b600754600a60008473ffffffffffffffffffffffffffffffffffffffff1673ffffffffffffffffffffffffffffffffffffffff168152602001908152602001600020819055506010829080600181540180825580915050600190039060005260206000200160009091909190916101000a81548173ffffffffffffffffffffffffffffffffffffffff021916908373ffffffffffffffffffffffffffffffffffffffff16021790555080600c60008473ffffffffffffffffffffffffffffffffffffffff1673ffffffffffffffffffffffffffffffffffffffff1681526020019081526020016000208190555080600554611a9191906139fb565b6005819055507f40c340f65e17194d14ddddb073d3c9f888e3cb52b5aae0c6c7706b4fbc905fac8282604051611ac8929190613743565b60405180910390a15050565b60008060008373ffffffffffffffffffffffffffffffffffffffff1673ffffffffffffffffffffffffffffffffffffffff168152602001908152602001600020549050919050565b6000601080549050905090565b600060108281548110611b65577f4e487b7100000000000000000000000000000000000000000000000000000000600052603260045260246000fd5b9060005260206000200160009054906101000a900473ffffffffffffffffffffffffffffffffffffffff169050919050565b606060048054611ba690613d09565b80601f0160208091040260200160405190810160405280929190818152602001828054611bd290613d09565b8015611c1f5780601f10611bf457610100808354040283529160200191611c1f565b820191906000526020600020905b815481529060010190602001808311611c0257829003601f168201915b5050505050905090565b6000600d60008373ffffffffffffffffffffffffffffffffffffffff1673ffffffffffffffffffffffffffffffffffffffff168152602001908152602001600020549050919050565b60008060016000611c81610619565b73ffffffffffffffffffffffffffffffffffffffff1673ffffffffffffffffffffffffffffffffffffffff16815260200190815260200160002060008573ffffffffffffffffffffffffffffffffffffffff1673ffffffffffffffffffffffffffffffffffffffff16815260200190815260200160002054905082811015611d3e576040517f08c379a0000000000000000000000000000000000000000000000000000000008152600401611d3590613969565b60405180910390fd5b611d52611d49610619565b85858403612540565b600191505092915050565b6000611d6883612c54565b8015611d815750611d7f611d7a610619565b612c54565b155b15611ef857611d96611d91610619565b61286b565b600e6000611da2610619565b73ffffffffffffffffffffffffffffffffffffffff1673ffffffffffffffffffffffffffffffffffffffff16815260200190815260200160002081905550600754600a6000611def610619565b73ffffffffffffffffffffffffffffffffffffffff1673ffffffffffffffffffffffffffffffffffffffff1681526020019081526020016000208190555081600c6000611e3a610619565b73ffffffffffffffffffffffffffffffffffffffff1673ffffffffffffffffffffffffffffffffffffffff16815260200190815260200160002054611e7f9190613c4d565b600c6000611e8b610619565b73ffffffffffffffffffffffffffffffffffffffff1673ffffffffffffffffffffffffffffffffffffffff1681526020019081526020016000208190555081600554611ed79190613c4d565b600581905550611eef611ee8610619565b8484612c67565b60019050612329565b611f08611f03610619565b612c54565b8015611f1a5750611f1883612c54565b155b1561206e57611f288361286b565b600e60008573ffffffffffffffffffffffffffffffffffffffff1673ffffffffffffffffffffffffffffffffffffffff16815260200190815260200160002081905550600754600a60008573ffffffffffffffffffffffffffffffffffffffff1673ffffffffffffffffffffffffffffffffffffffff1681526020019081526020016000208190555081600c60008573ffffffffffffffffffffffffffffffffffffffff1673ffffffffffffffffffffffffffffffffffffffff16815260200190815260200160002054611ffc91906139fb565b600c60008573ffffffffffffffffffffffffffffffffffffffff1673ffffffffffffffffffffffffffffffffffffffff168152602001908152602001600020819055508160055461204d91906139fb565b60058190555061206561205e610619565b8484612c67565b60019050612329565b61207e612079610619565b612c54565b801561208f575061208e83612c54565b5b156120af576120a661209f610619565b8484612c67565b60019050612329565b6120bf6120ba610619565b61286b565b600e60006120cb610619565b73ffffffffffffffffffffffffffffffffffffffff1673ffffffffffffffffffffffffffffffffffffffff16815260200190815260200160002081905550600754600a6000612118610619565b73ffffffffffffffffffffffffffffffffffffffff1673ffffffffffffffffffffffffffffffffffffffff1681526020019081526020016000208190555081600c6000612163610619565b73ffffffffffffffffffffffffffffffffffffffff1673ffffffffffffffffffffffffffffffffffffffff168152602001908152602001600020546121a89190613c4d565b600c60006121b4610619565b73ffffffffffffffffffffffffffffffffffffffff1673ffffffffffffffffffffffffffffffffffffffff168152602001908152602001600020819055506121fb8361286b565b600e60008573ffffffffffffffffffffffffffffffffffffffff1673ffffffffffffffffffffffffffffffffffffffff16815260200190815260200160002081905550600754600a60008573ffffffffffffffffffffffffffffffffffffffff1673ffffffffffffffffffffffffffffffffffffffff1681526020019081526020016000208190555081600c60008573ffffffffffffffffffffffffffffffffffffffff1673ffffffffffffffffffffffffffffffffffffffff168152602001908152602001600020546122cf91906139fb565b600c60008573ffffffffffffffffffffffffffffffffffffffff1673ffffffffffffffffffffffffffffffffffffffff1681526020019081526020016000208190555061232461231d610619565b8484612c67565b600190505b92915050565b600061233c848484612c67565b600061234f8561234a610619565b6123fd565b905082811015612394576040517f08c379a000000000000000000000000000000000000000000000000000000000815260040161238b90613909565b60405180910390fd5b6123a8856123a0610619565b858403612540565b60019150509392505050565b6000600c60008373ffffffffffffffffffffffffffffffffffffffff1673ffffffffffffffffffffffffffffffffffffffff168152602001908152602001600020549050919050565b6000600160008473ffffffffffffffffffffffffffffffffffffffff1673ffffffffffffffffffffffffffffffffffffffff16815260200190815260200160002060008373ffffffffffffffffffffffffffffffffffffffff1673ffffffffffffffffffffffffffffffffffffffff16815260200190815260200160002054905092915050565b6000601460009054906101000a900473ffffffffffffffffffffffffffffffffffffffff1673ffffffffffffffffffffffffffffffffffffffff166370a08231306040518263ffffffff1660e01b81526004016124e191906136c8565b60206040518083038186803b1580156124f957600080fd5b505afa15801561250d573d6000803e3d6000fd5b505050506040513d601f19601f820116820180604052508101906125319190613088565b905090565b6000600654905090565b600073ffffffffffffffffffffffffffffffffffffffff168373ffffffffffffffffffffffffffffffffffffffff1614156125b0576040517f08c379a00000000000000000000000000000000000000000000000000000000081526004016125a790613949565b60405180910390fd5b600073ffffffffffffffffffffffffffffffffffffffff168273ffffffffffffffffffffffffffffffffffffffff161415612620576040517f08c379a0000000000000000000000000000000000000000000000000000000008152600401612617906137c9565b60405180910390fd5b80600160008573ffffffffffffffffffffffffffffffffffffffff1673ffffffffffffffffffffffffffffffffffffffff16815260200190815260200160002060008473ffffffffffffffffffffffffffffffffffffffff1673ffffffffffffffffffffffffffffffffffffffff168152602001908152602001600020819055508173ffffffffffffffffffffffffffffffffffffffff168373ffffffffffffffffffffffffffffffffffffffff167f8c5be1e5ebec7d5bd14f71427d1e84f3dd0314c0f7b2291e5b200ac8c7c3b925836040516126fe91906139a9565b60405180910390a3505050565b600073ffffffffffffffffffffffffffffffffffffffff168273ffffffffffffffffffffffffffffffffffffffff16141561277b576040517f08c379a000000000000000000000000000000000000000000000000000000000815260040161277290613989565b60405180910390fd5b61278760008383612ee8565b806002600082825461279991906139fb565b92505081905550806000808473ffffffffffffffffffffffffffffffffffffffff1673ffffffffffffffffffffffffffffffffffffffff16815260200190815260200160002060008282546127ee91906139fb565b925050819055508173ffffffffffffffffffffffffffffffffffffffff16600073ffffffffffffffffffffffffffffffffffffffff167fddf252ad1be2c89b69c2b068fc378daa952ba7f163c4a11628f55a4df523b3ef8360405161285391906139a9565b60405180910390a361286760008383612eed565b5050565b600080600c60008473ffffffffffffffffffffffffffffffffffffffff1673ffffffffffffffffffffffffffffffffffffffff1681526020019081526020016000205411801561296557506000601460009054906101000a900473ffffffffffffffffffffffffffffffffffffffff1673ffffffffffffffffffffffffffffffffffffffff166370a08231306040518263ffffffff1660e01b815260040161291391906136c8565b60206040518083038186803b15801561292b57600080fd5b505afa15801561293f573d6000803e3d6000fd5b505050506040513d601f19601f820116820180604052508101906129639190613088565b115b15612aae576000600a60008473ffffffffffffffffffffffffffffffffffffffff1673ffffffffffffffffffffffffffffffffffffffff168152602001908152602001600020546007546129b99190613c4d565b9050600d60008473ffffffffffffffffffffffffffffffffffffffff1673ffffffffffffffffffffffffffffffffffffffff16815260200190815260200160002054600554600c60008673ffffffffffffffffffffffffffffffffffffffff1673ffffffffffffffffffffffffffffffffffffffff1681526020019081526020016000205483612a499190613bf3565b612a539190613a51565b612a5d9190613c4d565b9150600e60008473ffffffffffffffffffffffffffffffffffffffff1673ffffffffffffffffffffffffffffffffffffffff1681526020019081526020016000205482612aaa91906139fb565b9150505b919050565b80601460009054906101000a900473ffffffffffffffffffffffffffffffffffffffff1673ffffffffffffffffffffffffffffffffffffffff166370a08231306040518263ffffffff1660e01b8152600401612b0f91906136c8565b60206040518083038186803b158015612b2757600080fd5b505afa158015612b3b573d6000803e3d6000fd5b505050506040513d601f19601f82011682018060405250810190612b5f9190613088565b1015612ba0576040517f08c379a0000000000000000000000000000000000000000000000000000000008152600401612b97906138a9565b60405180910390fd5b601460009054906101000a900473ffffffffffffffffffffffffffffffffffffffff1673ffffffffffffffffffffffffffffffffffffffff1663a9059cbb83836040518363ffffffff1660e01b8152600401612bfd929190613743565b602060405180830381600087803b158015612c1757600080fd5b505af1158015612c2b573d6000803e3d6000fd5b505050506040513d601f19601f82011682018060405250810190612c4f9190613036565b505050565b600080823b905060008111915050919050565b600073ffffffffffffffffffffffffffffffffffffffff168373ffffffffffffffffffffffffffffffffffffffff161415612cd7576040517f08c379a0000000000000000000000000000000000000000000000000000000008152600401612cce90613929565b60405180910390fd5b600073ffffffffffffffffffffffffffffffffffffffff168273ffffffffffffffffffffffffffffffffffffffff161415612d47576040517f08c379a0000000000000000000000000000000000000000000000000000000008152600401612d3e906137a9565b60405180910390fd5b612d52838383612ee8565b60008060008573ffffffffffffffffffffffffffffffffffffffff1673ffffffffffffffffffffffffffffffffffffffff16815260200190815260200160002054905081811015612dd8576040517f08c379a0000000000000000000000000000000000000000000000000000000008152600401612dcf90613849565b60405180910390fd5b8181036000808673ffffffffffffffffffffffffffffffffffffffff1673ffffffffffffffffffffffffffffffffffffffff16815260200190815260200160002081905550816000808573ffffffffffffffffffffffffffffffffffffffff1673ffffffffffffffffffffffffffffffffffffffff1681526020019081526020016000206000828254612e6b91906139fb565b925050819055508273ffffffffffffffffffffffffffffffffffffffff168473ffffffffffffffffffffffffffffffffffffffff167fddf252ad1be2c89b69c2b068fc378daa952ba7f163c4a11628f55a4df523b3ef84604051612ecf91906139a9565b60405180910390a3612ee2848484612eed565b50505050565b505050565b505050565b600081359050612f0181613e17565b92915050565b600081519050612f1681613e2e565b92915050565b600081359050612f2b81613e45565b92915050565b600081519050612f4081613e45565b92915050565b600060208284031215612f5857600080fd5b6000612f6684828501612ef2565b91505092915050565b60008060408385031215612f8257600080fd5b6000612f9085828601612ef2565b9250506020612fa185828601612ef2565b9150509250929050565b600080600060608486031215612fc057600080fd5b6000612fce86828701612ef2565b9350506020612fdf86828701612ef2565b9250506040612ff086828701612f1c565b9150509250925092565b6000806040838503121561300d57600080fd5b600061301b85828601612ef2565b925050602061302c85828601612f1c565b9150509250929050565b60006020828403121561304857600080fd5b600061305684828501612f07565b91505092915050565b60006020828403121561307157600080fd5b600061307f84828501612f1c565b91505092915050565b60006020828403121561309a57600080fd5b60006130a884828501612f31565b91505092915050565b6130ba81613c81565b82525050565b6130c981613c93565b82525050565b60006130da826139df565b6130e481856139ea565b93506130f4818560208601613cd6565b6130fd81613df9565b840191505092915050565b60006131156023836139ea565b91507f45524332303a207472616e7366657220746f20746865207a65726f206164647260008301527f65737300000000000000000000000000000000000000000000000000000000006020830152604082019050919050565b600061317b6022836139ea565b91507f45524332303a20617070726f766520746f20746865207a65726f20616464726560008301527f73730000000000000000000000000000000000000000000000000000000000006020830152604082019050919050565b60006131e16014836139ea565b91507f4552433230203a207368617265732061726520300000000000000000000000006000830152602082019050919050565b60006132216010836139ea565b91507f6e6f2066756e647320746f2070756c6c000000000000000000000000000000006000830152602082019050919050565b60006132616023836139ea565b91507f4552433230203a206163636f756e7420697320746865207a65726f206164647260008301527f65737300000000000000000000000000000000000000000000000000000000006020830152604082019050919050565b60006132c76026836139ea565b91507f45524332303a207472616e7366657220616d6f756e742065786365656473206260008301527f616c616e636500000000000000000000000000000000000000000000000000006020830152604082019050919050565b600061332d6026836139ea565b91507f5061796d656e7453706c69747465723a206163636f756e7420686173206e6f2060008301527f73686172657300000000000000000000000000000000000000000000000000006020830152604082019050919050565b60006133936012836139ea565b91507f4e6f20616c6c6f77616e636520666f756e6400000000000000000000000000006000830152602082019050919050565b60006133d3601d836139ea565b91507f416464726573733a20696e73756666696369656e742062616c616e63650000006000830152602082019050919050565b6000613413602b836139ea565b91507f5061796d656e7453706c69747465723a206163636f756e74206973206e6f742060008301527f647565207061796d656e740000000000000000000000000000000000000000006020830152604082019050919050565b60006134796022836139ea565b91507f4552433230203a206163636f756e7420616c726561647920686173207368617260008301527f65730000000000000000000000000000000000000000000000000000000000006020830152604082019050919050565b60006134df6028836139ea565b91507f45524332303a207472616e7366657220616d6f756e742065786365656473206160008301527f6c6c6f77616e63650000000000000000000000000000000000000000000000006020830152604082019050919050565b60006135456025836139ea565b91507f45524332303a207472616e736665722066726f6d20746865207a65726f20616460008301527f64726573730000000000000000000000000000000000000000000000000000006020830152604082019050919050565b60006135ab6024836139ea565b91507f45524332303a20617070726f76652066726f6d20746865207a65726f2061646460008301527f72657373000000000000000000000000000000000000000000000000000000006020830152604082019050919050565b60006136116025836139ea565b91507f45524332303a2064656372656173656420616c6c6f77616e63652062656c6f7760008301527f207a65726f0000000000000000000000000000000000000000000000000000006020830152604082019050919050565b6000613677601f836139ea565b91507f45524332303a206d696e7420746f20746865207a65726f2061646472657373006000830152602082019050919050565b6136b381613cbf565b82525050565b6136c281613cc9565b82525050565b60006020820190506136dd60008301846130b1565b92915050565b60006040820190506136f860008301856130b1565b61370560208301846130b1565b9392505050565b600060608201905061372160008301866130b1565b61372e60208301856130b1565b61373b60408301846136aa565b949350505050565b600060408201905061375860008301856130b1565b61376560208301846136aa565b9392505050565b600060208201905061378160008301846130c0565b92915050565b600060208201905081810360008301526137a181846130cf565b905092915050565b600060208201905081810360008301526137c281613108565b9050919050565b600060208201905081810360008301526137e28161316e565b9050919050565b60006020820190508181036000830152613802816131d4565b9050919050565b6000602082019050818103600083015261382281613214565b9050919050565b6000602082019050818103600083015261384281613254565b9050919050565b60006020820190508181036000830152613862816132ba565b9050919050565b6000602082019050818103600083015261388281613320565b9050919050565b600060208201905081810360008301526138a281613386565b9050919050565b600060208201905081810360008301526138c2816133c6565b9050919050565b600060208201905081810360008301526138e281613406565b9050919050565b600060208201905081810360008301526139028161346c565b9050919050565b60006020820190508181036000830152613922816134d2565b9050919050565b6000602082019050818103600083015261394281613538565b9050919050565b600060208201905081810360008301526139628161359e565b9050919050565b6000602082019050818103600083015261398281613604565b9050919050565b600060208201905081810360008301526139a28161366a565b9050919050565b60006020820190506139be60008301846136aa565b92915050565b60006020820190506139d960008301846136b9565b92915050565b600081519050919050565b600082825260208201905092915050565b6000613a0682613cbf565b9150613a1183613cbf565b9250827fffffffffffffffffffffffffffffffffffffffffffffffffffffffffffffffff03821115613a4657613a45613d6c565b5b828201905092915050565b6000613a5c82613cbf565b9150613a6783613cbf565b925082613a7757613a76613d9b565b5b828204905092915050565b6000808291508390505b6001851115613acc57808604811115613aa857613aa7613d6c565b5b6001851615613ab75780820291505b8081029050613ac585613e0a565b9450613a8c565b94509492505050565b6000613ae082613cbf565b9150613aeb83613cc9565b9250613b187fffffffffffffffffffffffffffffffffffffffffffffffffffffffffffffffff8484613b20565b905092915050565b600082613b305760019050613bec565b81613b3e5760009050613bec565b8160018114613b545760028114613b5e57613b8d565b6001915050613bec565b60ff841115613b7057613b6f613d6c565b5b8360020a915084821115613b8757613b86613d6c565b5b50613bec565b5060208310610133831016604e8410600b8410161715613bc25782820a905083811115613bbd57613bbc613d6c565b5b613bec565b613bcf8484846001613a82565b92509050818404811115613be657613be5613d6c565b5b81810290505b9392505050565b6000613bfe82613cbf565b9150613c0983613cbf565b9250817fffffffffffffffffffffffffffffffffffffffffffffffffffffffffffffffff0483118215151615613c4257613c41613d6c565b5b828202905092915050565b6000613c5882613cbf565b9150613c6383613cbf565b925082821015613c7657613c75613d6c565b5b828203905092915050565b6000613c8c82613c9f565b9050919050565b60008115159050919050565b600073ffffffffffffffffffffffffffffffffffffffff82169050919050565b6000819050919050565b600060ff82169050919050565b60005b83811015613cf4578082015181840152602081019050613cd9565b83811115613d03576000848401525b50505050565b60006002820490506001821680613d2157607f821691505b60208210811415613d3557613d34613dca565b5b50919050565b6000613d4682613cbf565b9150613d5183613cbf565b925082613d6157613d60613d9b565b5b828206905092915050565b7f4e487b7100000000000000000000000000000000000000000000000000000000600052601160045260246000fd5b7f4e487b7100000000000000000000000000000000000000000000000000000000600052601260045260246000fd5b7f4e487b7100000000000000000000000000000000000000000000000000000000600052602260045260246000fd5b6000601f19601f8301169050919050565b60008160011c9050919050565b613e2081613c81565b8114613e2b57600080fd5b50565b613e3781613c93565b8114613e4257600080fd5b50565b613e4e81613cbf565b8114613e5957600080fd5b5056fea26469706673582212209342c85f99c0bbe00f927514b8fffc605d6e095ff8ffc30fd1e66f55e0d08bb064736f6c63430008000033",
  "immutableReferences": {},
  "source": "// SPDX-License-Identifier: MIT\r\npragma solidity >=0.4.22 <0.9.0;\r\n\r\nimport \"@openzeppelin/contracts/token/ERC20/ERC20.sol\";\r\nimport \"@openzeppelin/contracts/utils/Address.sol\";\r\nimport \"@openzeppelin/contracts/utils/Context.sol\";\r\n\r\n\r\ncontract ApiToken is ERC20{\r\n    \r\n    event PayeeAdded(address account, uint256 shares);\r\n    event PaymentReleased(address to, uint256 amount);\r\n    event PaymentReceived(address from, uint256 amount);\r\n\r\n    uint256 private _totalShares;\r\n    uint256 private _totalReleased;\r\n    uint256 private _totalRevenue;\r\n    uint256 private _threshold=500;\r\n    uint256 private _totalSupply=1*10**27;\r\n\r\n    mapping(address => uint256) private _pointOne;\r\n    mapping(address => uint256) private _userInvestment;\r\n    mapping(address => uint256) private _shares;\r\n    mapping(address => uint256) private _released;\r\n    mapping(address => uint256) private _unclaimedPayment;\r\n    mapping(address => uint256) private _unclaimedShares;\r\n    \r\n    address[] private _payees;\r\n    address[] private _unclaimedPayees;\r\n    \r\n    struct assignShares{\r\n        address _payee;\r\n        uint256 _share;\r\n    }\r\n    \r\n    assignShares[] private _assignShares;\r\n    \r\n    address private DAIAddress = address(0xaD6D458402F60fD3Bd25163575031ACDce07538D);\r\n    ERC20 private DAI = ERC20(DAIAddress);\r\n    \r\n    constructor(address[] memory payees, uint256[] memory shares_) ERC20(\"APIToken\",\"APT\")  {\r\n        \r\n        require(payees.length == shares_.length, \" payees and shares length mismatch\");\r\n        require(payees.length > 0, \" no payees\");\r\n\r\n        for (uint256 i = 0; i < payees.length; i++) {\r\n            _addPayee(payees[i], shares_[i]*10**decimals());\r\n            _mint(payees[i], shares_[i]*10**decimals());\r\n        }\r\n    }\r\n    \r\n    \r\n    receive() external payable virtual {\r\n        emit PaymentReceived(_msgSender(), msg.value);\r\n    }\r\n    \r\n    function contractRevenue() public view returns(uint256){\r\n        return DAI.balanceOf(address(this));\r\n    }\r\n    \r\n    function getBackALLDAI() public{\r\n        DAI.transfer(_msgSender(),contractRevenue());\r\n    }\r\n\r\n    function totalPayees() public view returns(uint256){\r\n        return _payees.length;\r\n    }\r\n\r\n    /**\r\n     * @dev Getter for the total shares held by payees.\r\n     */\r\n    function totalShares() public view returns (uint256) {\r\n        return _totalShares;\r\n    }\r\n\r\n    /**\r\n     * @dev Getter for the total amount of Ether already released.\r\n     */\r\n    function totalReleased() public view returns (uint256) {\r\n        return _totalReleased;\r\n    }\r\n\r\n    /**\r\n     * @dev Getter for the amount of shares held by an account.\r\n     */\r\n    function shares(address account) public view returns (uint256) {\r\n        return _shares[account];\r\n    }\r\n\r\n    /**\r\n     * @dev Getter for the amount of Ether already released to a payee.\r\n     */\r\n    function released(address account) public view returns (uint256) {\r\n        return _released[account];\r\n    }\r\n\r\n    /**\r\n     * @dev Getter for the address of the payee number `index`.\r\n     */\r\n    function payee(uint256 index) public view returns (address) {\r\n        return _payees[index];\r\n    }\r\n\r\n    /**\r\n     * @dev Triggers a transfer to `account` of the amount of Ether they are owed, according to their percentage of the\r\n     * total shares and their previous withdrawals.\r\n     */\r\n     \r\n     \r\n     \r\n     \r\n    function release(address  account) public virtual {\r\n        require(_shares[account] > 0 || _unclaimedPayment[account]>0, \"PaymentSplitter: account has no shares\");\r\n        require(DAI.balanceOf(address(this))>0,\"no funds to pull\");\r\n\r\n        uint256 totalReceived = _totalRevenue - _pointOne[account];\r\n        uint256 payment = (totalReceived * _shares[account]) / _totalShares - _released[account];\r\n        payment = payment + _unclaimedPayment[account];\r\n        require(payment != 0, \"PaymentSplitter: account is not due payment\");\r\n\r\n        _released[account] = _released[account] + payment;\r\n        _totalReleased = _totalReleased + payment;\r\n        _unclaimedPayment[account]=0;\r\n\r\n        sendValue(account, payment);\r\n        \r\n        emit PaymentReleased(account, payment);\r\n    }\r\n    \r\n    function unclaimedPayment(address account) private view returns(uint256 payment){\r\n        if(_shares[account] > 0 && DAI.balanceOf(address(this))>0){\r\n        uint256 totalReceived = _totalRevenue - _pointOne[account];\r\n        payment = (totalReceived * _shares[account]) / _totalShares - _released[account];\r\n        payment = payment + _unclaimedPayment[account];    \r\n        }\r\n    }\r\n    \r\n    \r\n\r\n        \r\n    \r\n    \r\n    \r\n    \r\n    \r\n    function sendValue(address recipient, uint256 amount) internal {\r\n        require(DAI.balanceOf(address(this)) >= amount, \"Address: insufficient balance\");\r\n\r\n        DAI.transfer(recipient,amount);\r\n    }\r\n    \r\n    \r\n    function _addPayee(address account, uint256 shares_) public {                        // this should be private making public for dev.\r\n        require(account != address(0), \"ERC20 : account is the zero address\");\r\n        require(shares_ > 0, \"ERC20 : shares are 0\");\r\n        require(_shares[account] == 0, \"ERC20 : account already has shares\");\r\n        \r\n        \r\n       \r\n        _pointOne[account]=_totalRevenue;\r\n        _payees.push(account);\r\n        _shares[account] = shares_;\r\n        _totalShares = _totalShares + shares_;\r\n        \r\n        emit PayeeAdded(account, shares_);\r\n    }\r\n    \r\n   \r\n    \r\n    \r\n    function subscribe(uint256 amount)public{\r\n        require(DAI.allowance(_msgSender(),address(this))>0,\"No allowance found\");\r\n        \r\n        _userInvestment[_msgSender()]=_userInvestment[_msgSender()]+amount;\r\n        _totalRevenue = _totalRevenue + amount;\r\n        \r\n        if(_userInvestment[_msgSender()]%_threshold==0 && _shares[_msgSender()]==0){\r\n            _addPayee(_msgSender(),1*10**decimals()+_shares[_msgSender()]);\r\n            _mint(_msgSender(),1*10**decimals());\r\n        }\r\n        else if(_userInvestment[_msgSender()]%_threshold==0 && _shares[_msgSender()]>0){\r\n            _unclaimedPayment[_msgSender()]=unclaimedPayment(_msgSender());\r\n            _pointOne[_msgSender()]=_totalRevenue;\r\n            _shares[_msgSender()]=_shares[_msgSender()]+1*10**decimals();\r\n            _mint(_msgSender(),1*10**decimals());\r\n            _totalShares=_totalShares+1*10**decimals();\r\n           \r\n        }\r\n        \r\n        DAI.transferFrom(_msgSender(),address(this),amount);\r\n    \r\n        \r\n    }\r\n    \r\n\r\n    \r\n    function transfer(address recipient, uint256 amount) public override returns (bool) {\r\n        if(isContract(recipient) && !isContract(_msgSender()))\r\n        {\r\n        _unclaimedPayment[_msgSender()]=unclaimedPayment(_msgSender());\r\n        _pointOne[_msgSender()]=_totalRevenue;\r\n        _shares[_msgSender()]=_shares[_msgSender()]-amount;\r\n        \r\n        _totalShares = _totalShares - amount;\r\n        \r\n        _transfer(_msgSender(), recipient, amount);\r\n        return true;\r\n        }\r\n        else if(isContract(_msgSender()) && !isContract(recipient)){\r\n        _unclaimedPayment[recipient]=unclaimedPayment(recipient);\r\n        _pointOne[recipient]=_totalRevenue;\r\n        _shares[recipient]=_shares[recipient]+amount;\r\n       _totalShares = _totalShares + amount;\r\n        _transfer(_msgSender(), recipient, amount);\r\n        return true;\r\n        }\r\n        else if(isContract(_msgSender()) && isContract(recipient)){\r\n            _transfer(_msgSender(), recipient, amount);\r\n        return true;\r\n        }\r\n        else{\r\n        _unclaimedPayment[_msgSender()]=unclaimedPayment(_msgSender());\r\n        _pointOne[_msgSender()]=_totalRevenue;\r\n        _shares[_msgSender()]=_shares[_msgSender()]-amount;\r\n        \r\n        _unclaimedPayment[recipient]=unclaimedPayment(recipient);\r\n        _pointOne[recipient]=_totalRevenue;\r\n        _shares[recipient]=_shares[recipient]+amount;\r\n       \r\n        _transfer(_msgSender(), recipient, amount);\r\n        \r\n        \r\n        return true;\r\n        }\r\n        \r\n    }\r\n    \r\n    function transferFrom(\r\n        address sender,\r\n        address recipient,\r\n        uint256 amount\r\n    ) public override returns (bool) {\r\n        \r\n        if(isContract(recipient) && !isContract(sender))\r\n        {\r\n        _unclaimedPayment[sender]=unclaimedPayment(sender);\r\n        _pointOne[sender]=_totalRevenue;\r\n        _shares[sender]=_shares[sender]-amount;\r\n        \r\n        _totalShares = _totalShares - amount;\r\n        \r\n        _transfer(sender, recipient, amount);\r\n        return true;\r\n        }\r\n        else if(isContract(sender) && !isContract(recipient)){\r\n        _unclaimedPayment[recipient]=unclaimedPayment(recipient);\r\n        _pointOne[recipient]=_totalRevenue;\r\n        _shares[recipient]=_shares[recipient]+amount;\r\n       _totalShares = _totalShares + amount;\r\n        _transfer(sender, recipient, amount);\r\n        return true;\r\n        }\r\n        else if(isContract(sender) && isContract(recipient)){\r\n            _transfer(sender, recipient, amount);\r\n        return true;\r\n        }\r\n        else{\r\n        _unclaimedPayment[sender]=unclaimedPayment(sender);\r\n        _pointOne[sender]=_totalRevenue;\r\n        _shares[sender]=_shares[sender]-amount;\r\n        \r\n        _unclaimedPayment[recipient]=unclaimedPayment(recipient);\r\n        _pointOne[recipient]=_totalRevenue;\r\n        _shares[recipient]=_shares[recipient]+amount;\r\n       \r\n        _transfer(sender, recipient, amount);\r\n        \r\n        \r\n        return true;\r\n        }\r\n}\r\n    \r\n    function _transferFrom(\r\n        address sender,\r\n        address recipient,\r\n        uint256 amount\r\n    ) public returns (bool) {\r\n        _transfer(sender, recipient, amount);\r\n\r\n        uint256 currentAllowance = allowance(sender,_msgSender());\r\n        require(currentAllowance >= amount, \"ERC20: transfer amount exceeds allowance\");\r\n        unchecked {\r\n            _approve(sender, _msgSender(), currentAllowance - amount);\r\n        }\r\n\r\n        return true;\r\n    }\r\n\r\n    \r\n    function mint(address account, uint256 amount) private {\r\n        require(amount+totalSupply()>_totalSupply,\" total supply reached\");\r\n        _mint(account,amount);\r\n    }\r\n    function isContract(address account) internal view returns (bool) {\r\n        // This method relies on extcodesize, which returns 0 for contracts in\r\n        // construction, since the code is only stored at the end of the\r\n        // constructor execution.\r\n\r\n        uint256 size;\r\n        assembly {\r\n            size := extcodesize(account)\r\n        }\r\n        return size > 0;\r\n    }\r\n    \r\n    \r\n    \r\n}",
  "sourcePath": "C:/Users/Acer/Documents/PIAIC/pana/Erc20/truffle/contracts/Apitoken.sol",
  "compiler": {
    "name": "solc",
    "version": "0.8.0+commit.c7dfd78e.Emscripten.clang"
  },
  "schemaVersion": "3.4.1",
  "updatedAt": "2021-09-21T11:44:30.991Z",
  "networkType": "ethereum",
  "devdoc": {
    "kind": "dev",
    "methods": {
      "allowance(address,address)": {
        "details": "See {IERC20-allowance}."
      },
      "approve(address,uint256)": {
        "details": "See {IERC20-approve}. Requirements: - `spender` cannot be the zero address."
      },
      "balanceOf(address)": {
        "details": "See {IERC20-balanceOf}."
      },
      "decimals()": {
        "details": "Returns the number of decimals used to get its user representation. For example, if `decimals` equals `2`, a balance of `505` tokens should be displayed to a user as `5.05` (`505 / 10 ** 2`). Tokens usually opt for a value of 18, imitating the relationship between Ether and Wei. This is the value {ERC20} uses, unless this function is overridden; NOTE: This information is only used for _display_ purposes: it in no way affects any of the arithmetic of the contract, including {IERC20-balanceOf} and {IERC20-transfer}."
      },
      "decreaseAllowance(address,uint256)": {
        "details": "Atomically decreases the allowance granted to `spender` by the caller. This is an alternative to {approve} that can be used as a mitigation for problems described in {IERC20-approve}. Emits an {Approval} event indicating the updated allowance. Requirements: - `spender` cannot be the zero address. - `spender` must have allowance for the caller of at least `subtractedValue`."
      },
      "increaseAllowance(address,uint256)": {
        "details": "Atomically increases the allowance granted to `spender` by the caller. This is an alternative to {approve} that can be used as a mitigation for problems described in {IERC20-approve}. Emits an {Approval} event indicating the updated allowance. Requirements: - `spender` cannot be the zero address."
      },
      "name()": {
        "details": "Returns the name of the token."
      },
      "payee(uint256)": {
        "details": "Getter for the address of the payee number `index`."
      },
      "release(address)": {
        "details": "Triggers a transfer to `account` of the amount of Ether they are owed, according to their percentage of the total shares and their previous withdrawals."
      },
      "released(address)": {
        "details": "Getter for the amount of Ether already released to a payee."
      },
      "shares(address)": {
        "details": "Getter for the amount of shares held by an account."
      },
      "symbol()": {
        "details": "Returns the symbol of the token, usually a shorter version of the name."
      },
      "totalReleased()": {
        "details": "Getter for the total amount of Ether already released."
      },
      "totalShares()": {
        "details": "Getter for the total shares held by payees."
      },
      "totalSupply()": {
        "details": "See {IERC20-totalSupply}."
      },
      "transfer(address,uint256)": {
        "details": "See {IERC20-transfer}. Requirements: - `recipient` cannot be the zero address. - the caller must have a balance of at least `amount`."
      },
      "transferFrom(address,address,uint256)": {
        "details": "See {IERC20-transferFrom}. Emits an {Approval} event indicating the updated allowance. This is not required by the EIP. See the note at the beginning of {ERC20}. Requirements: - `sender` and `recipient` cannot be the zero address. - `sender` must have a balance of at least `amount`. - the caller must have allowance for ``sender``'s tokens of at least `amount`."
      }
    },
    "version": 1
  },
  "userdoc": {
    "kind": "user",
    "methods": {},
    "version": 1
  }
}